:020000040000FA
:10000000200220206D01000071010000730100003A
:1000100000000000000000000000000000000000E0
:10002000000000000000000000000000750100005A
:100030000000000000000000770100004104000003
:100040007B0100007B0100007B0100007B010000C0
:100050007B0100007B0100007B0100007B010000B0
:10006000000000007B0100007B0100000000000098
:10007000000000007B0100007B0100007B0100000C
:100080007B0100007B010000430400007B010000B5
:100090007B0100007B010000000000000000000068
:1000A0007B0100007B010000000000000000000058
:1000B0007B010000000000007B0100007B010000CC
:1000C00000F002F800F042F812A030C808382418F6
:1000D0002D18AC4201D100F039F80FCCA246AB4646
:1000E0000CA730CF2D1B083F3F197C427F1E544484
:1000F0002D090426F441641EAC4201D300F026F819
:100100000126334200D0FB1A3343984754465D46DC
:10011000DFE700008C0300009C03000000000000EB
:100120007047000000000000002300240025002686
:10013000103A01D378C1FBD8520700D330C100D5A3
:100140000B6070471FB51FBD10B510BD00F027F83C
:100150001146FFF7F7FF00F08BF900F03FF803B40A
:10016000FFF7F2FF03BC00F045F800000648004727
:10017000FEE7FEE7FEE7FEE7FEE7FEE70348044989
:10018000024A044B70470000C100000020012020FB
:1001900020022020200120207047704770477546BC
:1001A00000F024F8AE46050069465346C008C0007A
:1001B000854618B020B5FFF7E1FF60BCB6460026C3
:1001C0000027C0C5C0C5C0C5C0C5C0C5C0C5C0C565
:1001D000C0C5403D490849008D46704710B50446EA
:1001E000C046C0462046FFF7BAFF10BD0048704722
:1001F0000000202001491820ABBEFEE726000200C7
:100200007047811E091F00BFFCD27047B0B54A6815
:10021000364BC250364A80180A78222A58D89300A2
:1002200001A4E3589F46C046C7020000D102000067
:10023000C7020000D1020000D1020000D10200007C
:10024000D1020000D1020000D1020000D102000062
:10025000D1020000D1020000D1020000D102000052
:10026000D1020000D1020000B5020000D10200005E
:10027000B5020000D1020000D1020000D10200004E
:10028000D1020000D1020000D1020000D102000022
:10029000D1020000D1020000D1020000D102000012
:1002A000D1020000D1020000B5020000D10200001E
:1002B000B502000003231B0704689C4301235B076E
:1002C000E318036004E003231B0704689C430460F5
:1002D0000B69C360CB68074C1C40C36A064D1D40C8
:1002E0002B19C362097A11430160B0BD08180000E0
:1002F00004180000777702008888FDFF10B50122FE
:10030000120383180C789C604B7883508978014ADB
:10031000815010BD0C1100000548064901600649D6
:100320008164012080030549086008647047C04665
:100330007C8042408100010081000E0090320A4022
:100340000D48002101600320C1430C48021F1368BF
:100350000B401360416801229143416011024268E1
:100360008A434260016830229143016001680F2294
:10037000914301607047C04608030B4004010B40E5
:10038000084809494160FF210906084A13688B4360
:10039000032189075918116000218160072101603C
:1003A0007047C04610E000E0FF7C000020ED00E058
:1003B00010B5084C08492046FFF7A0FF0749204622
:1003C000FFF724FF06480168012211430160054838
:1003D000026010BD00008640840400008804000014
:1003E000281086400811864080B500F00FF8FFF70E
:1003F00093FFFFF7A5FFFFF7DBFFFFF7C1FFB82073
:10040000014900220A5480BD6400202080B50748BD
:1004100007494160074A5160074B5960074901602D
:10042000116019601020FFF7ECFE80BD00080A4043
:10043000030000B100280A400008864001000026A1
:10044000704780B500F002F880BD000006480168E2
:10045000491C0160642905D300210160012080034B
:10046000024908607047C04660002020B0320A4050
:10047000FFF7BAFF0120800401490860FEE7C0468B
:1004800000E100E00800000022000000FF7C000006
:10049000010000000000000000000000000000005B
:1004A000B00400000000202020020000280100000D
:04000005000000C136
:00000001FF
