:020000040000FA
:10000000B0062020D5000000D9000000DB00000071
:1000100000000000000000000000000000000000E0
:10002000000000000000000000000000DD000000F3
:100030000000000000000000DF0000004513000089
:10004000E3000000A50B0000E3000000E300000057
:10005000C1060000E3000000E3000000E300000030
:1000600000000000E3000000E300000000000000CA
:1000700000000000F1130000E3000000CD130000B9
:10008000E3000000E3000000551300008D130000A2
:10009000E3000000E300000000000000000000009A
:1000A000E3000000E300000000000000000000008A
:1000B000E300000000000000E3000000E300000097
:1000C0000348854600F0B0FA0048004719170000C1
:1000D000B006202003480047FEE7FEE7FEE7FEE704
:1000E000FEE7FEE7C100000003460B439B0703D079
:1000F00009E008C9121F08C0042AFAD203E00B78ED
:100100000370401C491C521EF9D27047D2B201E064
:100110000270401C491EFBD270470022F6E710B562
:1001200013460A4604461946FFF7F0FF204610BD65
:10013000421C0178401C0029FBD1801A7047000046
:10014000F0B51FB488B00B9909980024484009996C
:10015000C00F490049080991C0070B990090490058
:1001600049080B9109990898A64608431CD00B9999
:100170000A98084318D0099801244000420D48000D
:10018000410D099824050003000B204309900B98AA
:100190000003000B20430B9050181C49401800220C
:1001A00001901446104605E0002001460DB0F0BD58
:1001B000032801DA034600E003239C46C11A0AAE75
:1001C0000AE05F0008ADED5B4F00F75B7D43002761
:1001D000AA187C41491C5B1E6145F2DD410004AB5D
:1001E0005A522104120C0A43240C401C0828DFDB5D
:1001F000019802900099704601910090059B049A25
:100200000799069800F0D8F8D0E700000DFCFFFF32
:10021000F0B50C465C4085B0E40FE40703944C0055
:100220000026640859009446490802460296224373
:1002300021D062460A431ED06200570D4A000E03C9
:100240002303550D012402462C492405781B1B0B62
:10025000360B401823432643614600901C46501A33
:10026000B44103D30098401C009002E0921800981B
:100270005B41002803DA0020014605B0F0BD0020F4
:10028000012109050746864611E064461D46141BF8
:10029000B54106D36546521BB341744607430C4330
:1002A000A646CD0740084908284392185B410546F9
:1002B0000D43EAD11046184313D06046194650400A
:1002C0007140084306D06046101AB34106D201229D
:1002D000002306E000220123DB0702E00122D243D3
:1002E0005310009874460105381C6141029C039D1F
:1002F0000019694100F053F8BFE70000FD0300005A
:1003000070B50446002903D000202022012310E00C
:10031000002801D00020C043C046C0460DE025465D
:10032000D5408D4205D30D469540641B1D46954032
:1003300040191546521E002DF1DC214670BDF0B566
:100340001FB40646002082B005464024019100906B
:100350001BE0019922460F46304600F08DF9049AC1
:10036000059B801A994110D310461946224600F089
:1003700073F9361A8F410197224601200021009F10
:1003800000F06AF938184D4100902046641E00289C
:10039000DFDC019B00982946324607B0F0BD10B55E
:1003A000002B08DA0024401C614192185B411A437B
:1003B00001D14008400010BDF0B51FB482B0054621
:1003C0000C0003D0084601F0EBF902E001F0E8F977
:1003D0002030024600902146284600F03DF9049B5B
:1003E000059A04460F4618431143084314D0184693
:1003F00010431BD0009840210A1A1846059900F0B6
:100400003BF905460E46009A0599049800F024F938
:10041000084305D0012004E02046394607B0F0BD6E
:100420000020C11705430E432C43374300990E9813
:100430006305401A7905E40A00220C43FD0A0A30DC
:1004400002D500200146E9E70105101969410C9C1D
:100450000D9D00196941FFF7A2FFDFE7F0B50746E0
:100460000846584087B0C00F049048000E46590017
:1004700040084908BC1A884105D2384631461E4614
:1004800017460B4602465800400810434CD0300D2A
:10049000039040055900400D490D0590401A029007
:1004A000402872DA18030121000B09050843019066
:1004B00004980092002805D00199524200208841FA
:1004C00000920190029840210A1A0199009800F0C8
:1004D000C3F805460C466B4607CB00F0DEF8C019A2
:1004E0007141039A0E0D0023D71756401A467A40E1
:1004F000164344D0049A002A2DD0029A012A039A66
:1005000015DC1205C01A914101263605001C714107
:10051000D20F059ED2070093019202962A462346E7
:10052000FFF74AFF07B0F0BD38463146FAE7160537
:10053000224A0F46B218C01AB74101210905001C12
:100540004F4100187F41114618187941E20F1043BE
:100550006D19644113E0E2076D0815436408C20792
:100560001443039A01261205C01A91413605001C56
:100570007141CE07400830434908C01851412A460E
:100580002346FFF70CFFCDE7FFE704980122400068
:10059000C117121A00238B4104983146C417381A28
:1005A000A141EEE730B40124E407634030BC55E7D5
:1005B00030B40124E407614030BC4FE70000E0FFA5
:1005C0004A0009030123090B1B0519430A4B10B507
:1005D000520D9A4202DA0020014610BD064B343318
:1005E0009A4203DC9A1A00F047F810BD034BD21868
:1005F00000F032F810BD0000FF030000CDFBFFFF4C
:1006000010B5002904DB0124E40740428C41214657
:10061000002B04DB1C460123DB075242A341994215
:1006200000D1904210BD00001CB509480090094857
:10063000019005460126009C05E0E36807CC3343A2
:100640000C3C98471034AC42F7D3FFF73DFD000057
:10065000582300007823000010B5202A04DB01464F
:10066000203A9140002010BD914020239C1A03465F
:10067000E3401943904010BD10B5202A04DB084622
:10068000203AD040002110BD0B46D340D04020245A
:10069000A21A91400843194610BD10B5202A06DB66
:1006A000CB170846203A1041C1170B4306E00B4612
:1006B0001341D0402024A21A91400843194610BD8E
:1006C00004480068C0B20A2802D103480121017021
:1006D0007047C0462010004071002020F0B583B064
:1006E00050380F284CD813463426402400270325C1
:1006F000784400794000874407220B16190D121424
:100700001E1C09434343430F302615E0552613E0D2
:10071000372611E041260FE01A4806680CE045260E
:100720000AE0492608E03D262E2408E03A26002467
:1007300004E0512600E04D260024042501270197FE
:10074000029434467000104A1018032B00D11D4645
:100750006A000E461F46FFF7C7FC0C480268204699
:1007600029469047032F0298019909D0002907D103
:10077000F2884100044B5A5204490A68012190470B
:1007800003B0F0BD9C052020760320206C032020C0
:10079000B0B50A78032313400B4A84580B4D25400B
:1007A000EB18A92424061B198350072212064B6854
:1007B00013401124240205599543EA1802510019E7
:1007C00049780161B0BDC04608080000FCFFFF0089
:1007D000811E091F00BFFCD270470000F0B584B035
:1007E000012422022A4B196803929143196035496A
:1007F0000D686D04FCD5457E25409E69A64374199D
:100800009C612024045D03252C40DE69AE4334192D
:10081000DC61204C256805262660466A37681F6221
:1008200076685E6207262E402660C4697F252D0209
:10083000DE69AE436406640C3419DC610768456800
:1008400082680092C66802690192426902929A69BE
:10085000114C14403A07120B2D03ADB2AA183243C3
:10086000009D2D072D0D1543019A1543029A15433E
:10087000007E2843094A0240101998611868039ABB
:100880001043186008688005FCD504B0F0BDC04670
:1008900008010B40001340408D00F0FF72FF0F0075
:1008A00007498860074802689202FCD501221204B9
:1008B0000B6813430B600168C906FCD57047C0463E
:1008C00004010B4004020B40F0B57A4A82183B4BFE
:1008D000C31808794E793A4D784C002E23D0202841
:1008E00004D00526F601002803D003E0354E002889
:1008F00000D18826576F2F4037435767976F2F4097
:1009000037439767566B26405663966B264096632F
:100910000026566596658F26F6435F6837405F6010
:100920009F6837409F608E79096820280BD0002887
:1009300019D1491E5160D76E2F4088210F43D766C9
:100940001746703719E0491E5160D16E29401D4F7E
:100950003943D166116F2940394311670121490795
:10096000194D174609E049085160D76E2F400521FF
:10097000C9010F43D766174670373C682C400C43BB
:100980003C60D16A4D4C2140D162116B2140116312
:100990000021D16411658F21C943D46F0C40D46705
:1009A0001C680C401C600643BD2030401168074B9A
:1009B0000B40C018801C1060F0BDC04684180000B9
:1009C00024493E0001040000FFFFFFCF4000FFCF9D
:1009D000B0B54A68364BC250364A80180A78222A87
:1009E00058D8930001A4E3589F46C0468B0A0000E4
:1009F000950A00008B0A0000950A0000950A000085
:100A0000950A0000950A0000950A0000950A00006A
:100A1000950A0000950A0000950A0000950A00005A
:100A2000950A0000950A0000950A0000790A000066
:100A3000950A0000790A0000950A0000950A000056
:100A4000950A0000950A0000950A0000950A00002A
:100A5000950A0000950A0000950A0000950A00001A
:100A6000950A0000950A0000950A0000790A000026
:100A7000950A0000790A000003231B0704689C43C1
:100A800001235B07E318036004E003231B070468EA
:100A90009C4304600B69C360CB68074C1C40C36A6D
:100AA000064D1D402B19C362097A11430160B0BD88
:100AB0000818000004180000777702008888FDFFFE
:100AC00010B507239B04194092008018024A8458ED
:100AD0009C436118815010BD3018000010B5029C75
:100AE000A400001911431943014A815010BDC046AA
:100AF0005018000092008018014A81507047C0468B
:100B00001018000010B50122120383180C789C60A5
:100B10004B7883508978014A815010BD0C11000038
:100B2000B0B51122120283580124A34383500B88CD
:100B30008C781C438B882343094C1C408358094DF7
:100B40001D40631983508B79CC791C43097A21436A
:100B50007E231940801842689A4351184160B0BD05
:100B600018670000E798FDFF10B5012212038318F3
:100B70000C789C604978815010BD0000034A8018B1
:100B800002681206FCD481617047C046081100005B
:100B900080B500F09FFD80BD0148022101607047D3
:100BA00000E100E010B514490868C2B21348052AF4
:100BB0000DD10268120602D50268D20601D40122C4
:100BC00001E00022D2430E4B1C68A2181A6009688B
:100BD000C9B208290FD10168090602D40848006883
:100BE00004E0016806480068C90601D4401E00E020
:100BF000401C0349086010BD20100A4080130A40C1
:100C00000800202080B50020502100F019FC054884
:100C100000F016FD044800F023FC044800F004FC3A
:100C200080BDC046F112000019120000910B0000B7
:100C300010B50124A0071349FFF7AAFD1248416827
:100C4000124A0A4003210B04D21842608268104BFA
:100C500013400A069A1882600E4A002313605460FB
:100C600002239360D1607D210902416161020A4A39
:100C7000136A0B43136213680B431360016821432B
:100C8000016010BDB022000000110040FEFFECFF2B
:100C9000F8FFE0E0801100402810004010B51C482B
:100CA0008722C2611B4B08211960842181610424C1
:100CB0001C608624446220241C60826240221A60E8
:100CC00082220260144B43608264C364134CE2626C
:100CD00023636160991C2160114981671149A163F7
:100CE000114901624163C320000210490A680243AE
:100CF0000A600F48016A90221143016201681143A2
:100D00000160012080030B490860086410BDC046E3
:100D100004804240D0120A40820004008C8042408D
:100D20008100010081000E0081000C0090130A4038
:100D300028100A4090320A40F0B581B01C4C1D4981
:100D40002046FFF7DFFE1C492046FFF7BDFD1B488C
:100D500001683E4A0A400260002500952046294667
:100D60002A462B46FFF7BAFE204629462A46FFF7B9
:100D7000A7FE7D20C600204631462A46FFF7BAFE70
:100D800001270097204629462A462B46FFF7A6FE54
:100D9000204629463A46FFF793FE204631463A461A
:100DA000FFF7A8FE064887600321016001B0F0BD8F
:100DB00000A08640B8220000BC22000004B8864093
:100DC00000B18640F0B581B01C4C1D492046FFF7AC
:100DD00099FE1C492046FFF777FD1B4801681B4A16
:100DE0000A40026000250095204629462A462B46E7
:100DF000FFF774FE204629462A46FFF761FE7D2054
:100E0000C600204631462A46FFF774FE01270097A8
:100E1000204629462A462B46FFF760FE20462946F3
:100E20003A46FFF74DFE204631463A46FFF762FE4E
:100E3000074887600321016001B0F0BD0080864053
:100E4000C4220000C8220000049886407F00FFFFF3
:100E500000918640B0B51348002404600F200002C2
:100E6000114D29688143012042028918296003211C
:100E7000C9432A1F13680B40136069688143696086
:100E800000026968814369600848FFF7A7FC286889
:100E9000102101432020814329602046FFF700FDF7
:100EA000B0BDC04608030B4004010B40D022000037
:100EB000084809494160FF210906084A13688B4325
:100EC0000321890759181160002181600721016001
:100ED0007047C04610E000E07F38010020ED00E0E0
:100EE00010B5084C08492046FFF70CFE074920467C
:100EF000FFF76EFD064801680122114301600548B5
:100F0000026010BD00008640F8220000FC220000B4
:100F1000281086400811864010B5084C0849204624
:100F2000FFF7F0FD07492046FFF752FD064801682C
:100F30000122114301600548026010BD0020864077
:100F4000102300001423000028308640083186401A
:100F500010B5164C16492046FFF706FE15492046E7
:100F6000FFF7DEFD0320C103134802688A430260D5
:100F700001695F4A0A4041218900511801614169B4
:100F80001B220A4324218A43426141680122114005
:100F900043689343591841609102084B1C680C4305
:100FA0001C6001681143016010BDC0460080104004
:100FB000282300002A2300000091104028901040B0
:100FC00010B5164C16492046FFF7CEFD15492046B0
:100FD000FFF7A6FD0320C103134802688A4302609D
:100FE0000169434A0A404121890051180161416960
:100FF0001B220A4324218A43426141680122114095
:1010000043689343591841609102084B1C680C4394
:101010001C6001681143016010BDC0460000104013
:101020003423000036230000001110402810104027
:1010300010B5134C13492046FFF796FD1249204680
:10104000FFF76EFD0320C103104802688A43026067
:101050000169274A0A40412189005118016141690B
:101060001B220A4324218A43426141680122114024
:10107000436893435918416001681143016010BDF2
:1010800000201040402300004223000000311040A7
:1010900010B5134C13492046FFF766FD1249204650
:1010A000FFF73EFD0320C103104802688A43026037
:1010B00001690F4A0A404121C90051180161416983
:1010C00035220A430A218A434261416801221140C4
:1010D000436893435918416001681143016010BD92
:1010E000000050404C2300004E23000000115040EF
:1010F0000000FFFF0348044901605F214906416089
:101100007047C04600110840330000C980B500F0A8
:1011100033F8FFF7C3FDFFF79DFEFFF70DFEFFF766
:1011200051FEFFF7DDFEFFF7F7FEFFF711FFFFF7B8
:1011300047FFFFF77DFFFFF7ABFFFFF779FDFFF7F5
:10114000B7FEFFF7D7FF9C20064900220A54064944
:101150000A54B82005490A5405490A542C20054967
:101160000A5480BD1801202078002020B8012020DA
:101170007402202030032020F0B581B01848194AAD
:101180004260194842601948426019484260194853
:10119000426019484260194F7A60194D6A60194CD3
:1011A0006260194B5A6019494A6019484260194AED
:1011B0000B4E32600C4E32600C4E32600C4E326080
:1011C0000C4E32600C4E32603A602A6022601A6027
:1011D0000A6002601020FFF7FBFA01B0F0BDC046C4
:1011E00000080A40030000B100280A4000A8864019
:1011F000008886400008864000288640008810400D
:10120000000810400028104000085040000800402E
:101210000008084001000026F0B583B0002961D025
:1012200003220D461540042935D3009591432E4ADB
:101230008318363B01903338029000252B4E04E092
:10124000204330702D1DA94222D002984219D71E8A
:1012500030788024092F274600D85F5D38433070EE
:10126000971E3078092F274601D85F197F783843B9
:101270003070571E3078092F274601D85F19BF7884
:10128000384330703078092ADAD85A19D478D7E739
:1012900001984019009D002D24D00446363C134986
:1012A0000A78092C02D8104B1B5D00E080231A43FA
:1012B0000A70012D16D00446353C0A78092C02D854
:1012C000094B1B5D00E080231A430A70022D09D0F0
:1012D00034380B78092802D8034A125C00E08022D7
:1012E00013430B7003B0F0BDA4200000960420202F
:1012F00070B5002922D003240B462340104A04294C
:1013000001D200240DE0A1430024055D15600519FC
:101310006E781660AE781660ED781560241DA142D7
:10132000F3D1002B0AD0015D1160012B06D000190A
:1013300041781160022B01D08078106070BDC046EA
:1013400020111040E6480168002901D0491E0160C3
:101350007047C046B0B50B4D2868411C29600A4C47
:101360002068401C2060652904D300F0E3F90020C8
:1013700028602068FF21F631884201D300202060D8
:10138000B0BDC046A8052020600320200548A72145
:101390000160012080030449086004480168491C79
:1013A0000160704708110840B0320A40A4052020AF
:1013B000012081041B4A1160C104116002490A68BE
:1013C00002430A607047C04604B8864010B507481B
:1013D0000068E5490A78E64B9854E44B01241C70F8
:1013E000094B1870501C087010BDC0462491104065
:1013F00080B50448006804490870C0B200F03AF8AB
:1014000080BDC04624111040700020200120C1037F
:10141000034A1160034B1960400310601860704765
:1014200080E200E000E100E0002803D0034908600A
:10143000002070470520C0437047C0466803202045
:10144000032802D90520C0437047044A1170794926
:1014500008607649002008607047C04604002020DC
:10146000002803D070490860002070470520C04361
:101470007047C046F0B589B001466B480568002D3D
:1014800000D1CFE0694C226869488154531C236025
:10149000684E3668B71E022F03D20020206009B0C4
:1014A000F0BD012E23D1032B00D2BBE04678032EE2
:1014B00056D18678771DBB4200D2B3E00692521E09
:1014C000835C1B025F1891B200F0C6F887424DD1D1
:1014D00059480068770800D19FE003213940029104
:1014E000791E03290497039044D2002468E0017810
:1014F000552935D10B2B00D294E0837841780691A1
:101500000593C918C3780493C91803790393C918BC
:1015100043790293C91883790193C918C6798F1941
:10152000017A7B18477ADB195533DBB2857AAB42F7
:1015300016D13802401807A9C8803002019A8018D5
:10154000888002980002039A80184880049800025C
:10155000059A8018088004220698FFF7BFF89CE7D8
:101560002260411CFEF7C0FD09B0F0BD069A226062
:101570002F48F6E77C213940069140002F49081892
:101580000590002634462A4881190A79CF783F020F
:10159000BA18059B9A538A794F793F02BA189F1956
:1015A0007A800A7ACB791B029A18BA808A7A497AA9
:1015B00009028918F9800836241D0699A142E3D151
:1015C000029E002E049F039827D06100184A8918B4
:1015D0000A79C9780902891802195200174B9952E1
:1015E000012E1AD0611C4A003346114E9219167909
:1015F000D2781202921941184900104E7252022BF1
:101600000BD0A41C61000A4A89180A79C97809021A
:10161000891802195200094B99523946A8470020EF
:101620000249086009B0F0BD6C032020A00520200D
:1016300098042020980520209C0520207603202057
:10164000002803D003490860002070470520C043EC
:101650007047C04670032020F0B581B0002909D042
:1016600001230A461A400092012906D1FF230025D2
:101670001C4618E0FF24234621E09943FF23002560
:10168000124E134F1C46425DDBB25340F25CE4B293
:101690005440421952786240BC5CB25CFB5C5340DF
:1016A000AD1CA942EFD10099002908D0405DD9B204
:1016B00041400748405C054A535C63400446E0B241
:1016C0001902081880B201B0F0BDC046AE2000007B
:1016D000AE21000002490860002800D0FEE77047F4
:1016E0007400202010B50446C1B20248FFF746FA44
:1016F000204610BD00801040044800688002C00FE2
:1017000003490870034908707047C04680330A4097
:101710006403202065032020FFF7F8FCFFF748FE54
:10172000FFF770FAFFF772FEFFF736FAFFF7E4FFF4
:10173000FCE7000070B50D4D2878002813D00A4E44
:10174000307800280FD00A4C2046FEF7F1FCC2B2D8
:1017500008A0214600F014F80020307028706421A1
:101760002046FEF7DAFC70BD74032020AC05202073
:101770000C0020202573206C656E3A25640D0A004C
:101780000FB410B503A9044B044A029800F0EEF818
:1017900010BC08BC04B01847E5160000000020206B
:1017A0002021020C01D010211046020A01D010465F
:1017B0000839020901D01046091F820801D01046DD
:1017C000891E420801D0881E7047081A7047000021
:1017D00002E008C8121F08C1002AFAD170470000B1
:1017E0007047000000000000002001E001C1121F4E
:1017F000002AFBD170470000F0B51FB486B00998ED
:10180000089A030D0021024314D05148514A181878
:10181000504305141198012810981AD0281A401C1A
:1018200000264D4F4D49009601910490002812DA90
:10183000444211E01198012449A3012801D11098D4
:10184000C1430698119A84600360C26041600BB086
:10185000F0BD4042E4E70446210500203F4A001C59
:1018600051410391029012E0E00707D032463B4617
:1018700001990098FEF764FC0191009032463B46C6
:1018800010461946FEF75CFC06460F466410002C15
:10189000EAD10498039B0028029A0999089806DA6D
:1018A000FEF74EFC019B009AFEF74AFC05E0FEF7AE
:1018B000AFFC019B009AFEF7ABFC04460E460022EB
:1018C000284BFEF79DFE03D80020C043014607E0E9
:1018D0000022254B20463146FEF7C0FDFEF770FE84
:1018E000102409E0002C0ADB0A220023FEF727FD62
:1018F000079B30321A55641E02460A43F2D1112268
:10190000641C079B121B1C19119B012B03D0012384
:1019100008430ED10AE0084304D0112010900020A3
:10192000119077E71098151A6D1E0BE010988242FF
:1019300002DD00236D1C03E0824201DA00236D1EEC
:10194000002BEED0069811998260C16030C07EE70E
:1019500001FCFFFF104D0000000014400000F03FAC
:10196000300000000000F0430000E03FFFB597B0FA
:101970000646002518E2252877D100242746FD4990
:10198000049400E00443761C32780120203A904011
:101990000842F7D130782A280ED00222307801464A
:1019A0003039092916D804990A2359433039401887
:1019B0001443761C0490F1E7189802C8049118901B
:1019C000002904DA01204003044348420490022025
:1019D0000443761C30782E2814D1042004437078F8
:1019E000761C2A2809D11898761C80C8189009E01E
:1019F0000A214F43303FC719761C307801463039F1
:101A00000929F5D930786C2810D006DC4C281AD07A
:101A100068280ED06A2817D104E0742813D07A28D9
:101A200012D110E00120400504430CE0012109051A
:101A300001E0032109050C437178814203D10120A3
:101A400000052418761C761C3078119066280BD07F
:101A500013DC58287DD009DC00287BD04528F6D03F
:101A60004628F4D047281AD1A5E118E0632835D0DC
:101A7000642870D0652812D19DE170286CD008DCF4
:101A80006728F1D069287BD06E280DD06F2806D149
:101A9000BAE073282ED0752871D0782859D01A9AB8
:101AA000199990476D1C7EE16002400F022809D011
:101AB00003280DD00428189801680DD00D60001D72
:101AC000189070E11898EA1701680D604A60F6E70F
:101AD000189801680D80F2E70D70F0E718986A46D3
:101AE00001781172001D18900020507202A8009019
:101AF000012005E0189802C8189000200091C0430A
:101B000061070DD5002101E00199491C0191B942FD
:101B100012DA8142F8DB009A515C0029F4D10BE023
:101B2000002101E00199491C01918142FADB019AEF
:101B30000099895C0029F5D1019904981A9B471AEC
:101B400021463846199A00F097FA0199401945182C
:101B50000BE04FE02CE113E04EE000980099007894
:101B6000491C00911A9A199990470198401E0190BA
:101B7000401CF2D1214638461A9B199A10E137E0F1
:101B80000A200021009001916002410F022907D034
:101B9000189A01CA1892C2179446032908D00AE07D
:101BA0001898C01DC108C90005C91891944607E0DE
:101BB00000B2C2179446042902D140B2C1178C4624
:101BC00000226146944506DA0A46002140429141CE
:101BD0008C462D2102E0210504D52B216A46117384
:101BE000012103E0E10701D02021F7E7029155E050
:101BF0000A200AE0102008E01020009000210420B4
:101C000004430191082703E008200021019100907E
:101C10006002410F022907D0189A01CA18920022C7
:101C20009446032908D008E01898C01DC108C900CF
:101C300005C91891944603E080B2042900D1C0B2CE
:101C400000210291210729D51199702906D0009A07
:101C50001021019B4A401A4305D00EE040216A46FC
:101C60001173012108E06146014306D030216A4624
:101C700011731199517302210291009A0821019B5D
:101C80004A401A430AD16146014301D1610705D593
:101C900030216A46117301217F1E02911199582942
:101CA00004D035A10E910DA90D910DE037A1F9E7F2
:101CB0006146019B009AFEF742FB0E9B8C469B5CA3
:101CC0000D9A521E0D92137061460143F0D10D988A
:101CD00005A9081A20300190600703D501200004EF
:101CE000844300E001270198874201DD381A00E0B3
:101CF0000020019900904118029809180498401A90
:101D00000490E00306D421461A9B199A049800F027
:101D1000B3F94519002706E003A81A9AC05D19997E
:101D200090476D1C7F1C02988742F5DBE0030CD5C1
:101D300021461A9B199A049800F09EF9451904E06F
:101D40001A9A3020199990476D1C0099481E0090EE
:101D50000029F5DC08E00D980D990078491C0D91DB
:101D60001A9A199990476D1C0199481E01900029F3
:101D7000F1DC63E109280100303132333435363784
:101D800038396162636465660000000030313233C7
:101D90003435363738394142434445460000000067
:101DA00000F05AF94519761C3078002800D0E2E599
:101DB00028461BB0F0BD600700D406271898C01D48
:101DC000C108C90048680A680831C30FDB071891C9
:101DD000190001D09CA108E0210501D59BA104E0D8
:101DE000E10701D09AA100E09AA1430011985B0895
:101DF000109165280CD006DC452809D046281DD056
:101E0000472841D141E0662818D067283CD13CE002
:101E10000021112F01DB112000E0781C01910090BE
:101E200008A911A8FFF7E8FC139905910021119A60
:101E300015927F1C12980197009150E00120C00775
:101E400003900120019008A9009711A8FFF7D4FC86
:101E5000139A149905920022119B009212981593DF
:101E6000059A0192002901D0104602E0791C401821
:101E70000190381A01D5019804E04042401E0090BC
:101E8000781C0190C01B029043E0012F00DA01276B
:101E90000021112F01DD112000E038460191009052
:101EA00008A911A8FFF7A8FC13990591119A002120
:101EB000129815920091019721070CD40599B94207
:101EC00001DB019900E00191012904DD159A491E09
:101ED000515C302906D0B84201DA011D05DA012132
:101EE000029115E00199491EEDE7002805DC0099F3
:101EF000411800910199091A03E0019A411C91428D
:101F000000DD01910099401A401C02900120C00799
:101F10000390200706D402990198814202DB002039
:101F2000C043029000206946C87707AF012103989B
:101F30000337C907884224D0022011902B20129029
:101F4000039800280CDA404203902D20129007E0FD
:101F50000A210398FEF7D4F930317F1E03903970BF
:101F60001199481E11900029F2DC03980028EFD146
:101F7000791E129808703078202108404530BF1E25
:101F8000387006A8C01BC01D039010980078002868
:101F900000D00120019941180298C0170918039830
:101FA00009180498401A401E0490E00306D4214604
:101FB0001A9B199A049800F05FF845191098007858
:101FC000002803D01A9A199990476D1CE00324D574
:101FD00021461A9B199A049800F04EF845191CE006
:101FE0000098002807DB00990598884203DD1598C2
:101FF000405C199901E0199930201A9A904700988D
:102000006D1C401C00900298401E0290002804D1D4
:102010001A9A2E20199990476D1C0199481E01901B
:102020000029DDDC05E038781A9A7F1C1999904761
:102030006D1C0399481E03900029F4DC21461A9B6D
:10204000199A0498ACE600002D0000002B00000057
:102050002000000000000000F8B5044600251E46E0
:102060001746880404D405E039462020B0476D1C8B
:10207000641EF9D52846F8BDFFB50446002581B099
:102080001E46C80301D5302700E02027880404D568
:1020900005E038460399B0476D1C641EF9D5284603
:1020A00005B0F0BD0180800280800880800400C1FE
:1020B000814001C0804101C0804100C1814001C018
:1020C000804100C1814000C1814001C0804101C008
:1020D000804100C1814000C1814001C0804100C1F8
:1020E000814001C0804101C0804100C1814001C0E8
:1020F000804100C1814000C1814001C0804100C1D8
:10210000814001C0804101C0804100C1814000C1C7
:10211000814001C0804101C0804100C1814001C0B7
:10212000804100C1814000C1814001C0804101C0A7
:10213000804100C1814000C1814001C0804100C197
:10214000814001C0804101C0804100C1814000C187
:10215000814001C0804101C0804100C1814001C077
:10216000804100C1814000C1814001C0804100C167
:10217000814001C0804101C0804100C1814001C057
:10218000804100C1814000C1814001C0804101C047
:10219000804100C1814000C1814001C0804100C137
:1021A000814001C0804101C0804100C1814000C028
:1021B000C101C30302C2C60607C705C5C404CC0CCF
:1021C0000DCD0FCFCE0E0ACACB0BC90908C8D8183F
:1021D00019D91BDBDA1A1EDEDF1FDD1D1CDC14D44F
:1021E000D515D71716D6D21213D311D1D010F0307F
:1021F00031F133F3F23236F6F737F53534F43CFC8F
:10220000FD3DFF3F3EFEFA3A3BFB39F9F83828E83E
:10221000E929EB2B2AEAEE2E2FEF2DEDEC2CE4240E
:1022200025E527E7E62622E2E323E12120E0A0607E
:1022300061A163A3A26266A6A767A56564A46CAC4E
:10224000AD6DAF6F6EAEAA6A6BAB69A9A86878B8BE
:10225000B979BB7B7ABABE7E7FBF7DBDBC7CB474CE
:1022600075B577B7B67672B2B373B17170B050907E
:1022700091519353529296565797559594549C5C0E
:102280005D9D5F9F9E5E5A9A9B5B995958988848BE
:1022900049894B8B8A4A4E8E8F4F8D4D4C8C44848E
:1022A00085458747468682424383418180400000BE
:1022B000010500000000000008000000E803000025
:1022C0000000000008000000E8030000000000001B
:1022D00003000000000000000000000040000000BB
:1022E00000000000000000000200000009000000E3
:1022F000010000002C00C441080100002200000081
:102300003F9C0000010000000000000000000000F1
:102310000807C700220000004FC3000001000000B2
:10232000000000000000000008000000180000008D
:10233000003000000800000018000000003000001D
:102340000800000018000000003000000800000035
:10235000180000000030000078230000000020205A
:1023600008000000D0170000802300000800202093
:10237000A8060000E817000000000000FF000000B1
:04000005000000C136
:00000001FF
