:020000040000FA
:1000000070052020D5000000D9000000DB000000B2
:1000100000000000000000000000000000000000E0
:10002000000000000000000000000000DD000000F3
:100030000000000000000000DF00000021120000AE
:10004000E3000000E3000000E3000000E300000024
:10005000F9070000E3000000E3000000E3000000F7
:1000600000000000E3000000E300000000000000CA
:1000700000000000C1120000E30000009112000027
:1000800071120000E300000035120000E3000000E0
:10009000E3000000E300000000000000000000009A
:1000A000E3000000E300000000000000000000008A
:1000B000E300000000000000E3000000E300000097
:1000C0000348854600F04CFB00480047391B000000
:1000D0007005202003480047FEE7FEE7FEE7FEE745
:1000E000FEE7FEE7C100000003460B439B0703D079
:1000F00009E008C9121F08C0042AFAD203E00B78ED
:100100000370401C491C521EF9D27047D2B201E064
:100110000270401C491EFBD270470022F6E710B562
:1001200013460A4604461946FFF7F0FF204610BD65
:10013000421C0178401C0029FBD1801A70470246FE
:1001400070B54A40D30FDB0740002DD04A002AD0BB
:10015000010E140E000212020919400A520A8418F4
:10016000E50104465443000A120A2E045043A41920
:100170004219200CC543AA18120C0125AD03521CCC
:10018000521912047F39240400D0521C104301D4A8
:100190004000491EC2B20C06C0092018401C40088D
:1001A000802A02D003E0002070BD400840000029F2
:1001B00000DA0020184370BDF0B51FB488B00B9969
:1001C0000998002448400999C00F4900490809913D
:1001D000C0070B990090490049080B9109990898AC
:1001E000A64608431CD00B990A98084318D00998D2
:1001F00001244000420D4800410D099824050003E8
:10020000000B204309900B980003000B20430B9038
:1002100050181C494018002201901446104605E071
:10022000002001460DB0F0BD032801DA034600E0CE
:1002300003239C46C11A0AAE0AE05F0008ADED5BDD
:100240004F00F75B7D430027AA187C41491C5B1EC9
:100250006145F2DD410004AB5A522104120C0A43FD
:10026000240C401C0828DFDB01980290009970469E
:1002700001910090059B049A0799069800F038F9BF
:10028000D0E700000DFCFFFFF0B50C465C4085B0E8
:10029000E40FE40703944C000026640859009446D8
:1002A000490802460296224321D062460A431ED0E4
:1002B0006200570D4A000E032303550D0124024628
:1002C0002C492405781B1B0B360B4018234326436F
:1002D000614600901C46501AB44103D30098401C5C
:1002E000009002E0921800985B41002803DA002099
:1002F000014605B0F0BD00200121090507468646EC
:1003000011E064461D46141BB54106D36546521BD9
:10031000B341744607430C43A646CD07400849083D
:10032000284392185B4105460D43EAD11046184315
:1003300013D06046194650407140084306D06046CD
:10034000101AB34106D20122002306E00022012345
:10035000DB0702E00122D2435310009874460105E6
:10036000381C6141029C039D0019694100F0B3F8FB
:10037000BFE70000FD030000C217C10F504010B5D9
:100380004018CA079623002100F06CF810BDC20F78
:10039000D207400040080BD0C10D0723DB01C9186C
:1003A00040020905400A1143C20840071143704743
:1003B00000200146704770B50446002903D0002094
:1003C0002022012310E0002801D00020C043C046B5
:1003D000C0460DE02546D5408D4205D30D469540DB
:1003E000641B1D46954040191546521E002DF1DC38
:1003F000214670BDF0B51FB40646002082B0054608
:100400004024019100901BE0019922460F4630469E
:1004100000F0CEF9049A059B801A994110D310463A
:100420001946224600F0B4F9361A8F410197224648
:1004300001200021009F00F0ABF938184D410090D9
:100440002046641E0028DFDC019B009829463246C6
:1004500007B0F0BD002904DA401C490001D1400872
:100460004000704770B40024050C05D1102400042E
:1004700002D1002921D01124050E01D10002083437
:10048000050F01D10001241D850F01D18000A41C9E
:10049000002801DB4000641C002908D020252E1B09
:1004A0000D46F540A14000D0012129430843010633
:1004B0001B1B000ADB1D02D5002070BC7047DB054A
:1004C000181880180029F8DA401C4900F5D170BCD2
:1004D00040084000704710B5002B08DA0024401C8B
:1004E000614192185B411A4301D14008400010BDA0
:1004F000F0B51FB482B005460C0003D0084601F0E9
:1005000079FB02E001F076FB2030024600902146A4
:10051000284600F03DF9049B059A04460F4618430F
:100520001143084314D0184610431BD000984021B3
:100530000A1A1846059900F03BF905460E46009A3E
:100540000599049800F024F9084305D0012004E03F
:100550002046394607B0F0BD0020C11705430E43C1
:100560002C43374300990E986305401A7905E40A35
:1005700000220C43FD0A0A3002D500200146E9E7BB
:100580000105101969410C9C0D9D00196941FFF787
:10059000A2FFDFE7F0B507460846584087B0C00F16
:1005A000049048000E46590040084908BC1A88418A
:1005B00005D2384631461E4617460B4602465800BD
:1005C000400810434CD0300D039040055900400DB9
:1005D000490D0590401A0290402872DA1803012153
:1005E000000B09050843019004980092002805D0EB
:1005F00001995242002088410092019002984021C6
:100600000A1A0199009800F0C3F805460C466B469B
:1006100007CB00F0DEF8C0197141039A0E0D0023DC
:10062000D71756401A467A40164344D0049A002AF7
:100630002DD0029A012A039A15DC1205C01A9141A5
:1006400001263605001C7141D20F059ED20700938A
:10065000019202962A462346FFF74AFF07B0F0BDF3
:1006600038463146FAE71605224A0F46B218C01A34
:10067000B74101210905001C4F4100187F41114677
:1006800018187941E20F10436D19644113E0E20735
:100690006D0815436408C2071443039A0126120526
:1006A000C01A91413605001C7141CE074008304305
:1006B0004908C01851412A462346FFF70CFFCDE7F1
:1006C000FFE7049801224000C117121A00238B4152
:1006D00004983146C417381AA141EEE730B401241A
:1006E000E407634030BC55E730B40124E4076140BF
:1006F00030BC4FE70000E0FF4A0009030123090B6B
:100700001B0519430A4B10B5520D9A4202DA00201C
:10071000014610BD064B34339A4203DC9A1A00F0AE
:1007200047F810BD034BD21800F032F810BD00009E
:10073000FF030000CDFBFFFF10B5002904DB0124FF
:10074000E40740428C412146002B04DB1C46012378
:10075000DB075242A341994200D1904210BD0000F4
:100760001CB5094800900948019005460126009CE7
:1007700005E0E36807CC33430C3C98471034AC42A7
:10078000F7D3FFF7A1FC0000DC270000FC270000E6
:1007900010B5202A04DB0146203A9140002010BD0C
:1007A000914020239C1A0346E3401943904010BD1A
:1007B00010B5202A04DB0846203AD040002110BDA5
:1007C0000B46D340D0402024A21A9140084319463A
:1007D00010BD10B5202A06DBCB170846203A104181
:1007E000C1170B4306E00B461341D0402024A21A48
:1007F00091400843194610BD04480068C0B20A2859
:1008000002D10348012101707047C046201000400A
:100810006D002020044810210160012000020349DE
:100820000A6802430A60704700E100E004110040DA
:10083000F0B583B050380F284CD8134634264024E6
:1008400000270325784400794000874407220B16CF
:10085000190D12141E1C09434343430F302615E0A3
:10086000552613E0372611E041260FE01A480668A6
:100870000CE045260AE0492608E03D262E2408E043
:100880003A26002404E0512600E04D2600240425E9
:1008900001270197029434467000104A1018032B68
:1008A00000D11D466A000E461F46FFF71DFC0C488E
:1008B0000268204629469047032F0298019909D0E3
:1008C000002907D1F2884100044B5A5204490A68B2
:1008D0000121904703B0F0BD5C04202036022020A7
:1008E0002C022020B0B50A78032313400B4A845809
:1008F0000B4D2540EB18A92424061B198350072211
:1009000012064B6813401124240205599543EA1836
:100910000251001949780161B0BDC04608080000C5
:10092000FCFFFF00811E091F00BFFCD270470000C2
:10093000F0B584B0012422022A4B19680392914336
:10094000196035490D686D04FCD5457E25409E69CA
:10095000A64374199C612024045D03252C40DE69A4
:10096000AE433419DC61204C256805262660466AB2
:1009700037681F6276685E6207262E402660C4696B
:100980007F252D02DE69AE436406640C3419DC61F8
:100990000768456882680092C668026901924269E8
:1009A00002929A69114C14403A07120B2D03ADB212
:1009B000AA183243009D2D072D0D1543019A1543AA
:1009C000029A1543007E2843094A02401019986193
:1009D0001868039A1043186008688005FCD504B0B5
:1009E000F0BDC04608010B40001340408D00F0FFF1
:1009F00072FF0F0007498860074802689202FCD521
:100A0000012212040B6813430B600168C906FCD570
:100A10007047C04604010B4004020B40F0B57A4A0F
:100A200082183B4BC31808794E793A4D784C002E0A
:100A300023D0202804D00526F601002803D003E0A7
:100A4000354E002800D18826576F2F40374357670F
:100A5000976F2F4037439767566B26405663966BC8
:100A6000264096630026566596658F26F6435F6896
:100A700037405F609F6837409F608E790968202803
:100A80000BD0002819D1491E5160D76E2F40882104
:100A90000F43D7661746703719E0491E5160D16E73
:100AA00029401D4F3943D166116F294039431167E1
:100AB00001214907194D174609E049085160D76ED1
:100AC0002F400521C9010F43D766174670373C6890
:100AD0002C400C433C60D16A4D4C2140D162116BDB
:100AE000214011630021D16411658F21C943D46F66
:100AF0000C40D4671C680C401C600643BD2030408D
:100B00001168074B0B40C018801C1060F0BDC04638
:100B10008418000024493E0001040000FFFFFFCFBD
:100B20004000FFCFB0B54A68364BC250364A8018F5
:100B30000A78222A58D8930001A4E3589F46C04659
:100B4000DF0B0000E90B0000DF0B0000E90B0000E9
:100B5000E90B0000E90B0000E90B0000E90B0000C5
:100B6000E90B0000E90B0000E90B0000E90B0000B5
:100B7000E90B0000E90B0000E90B0000E90B0000A5
:100B8000CD0B0000E90B0000CD0B0000E90B0000CD
:100B9000E90B0000E90B0000E90B0000E90B000085
:100BA000E90B0000E90B0000E90B0000E90B000075
:100BB000E90B0000E90B0000E90B0000E90B000065
:100BC000CD0B0000E90B0000CD0B000003231B0739
:100BD00004689C4301235B07E318036004E00323DC
:100BE0001B0704689C4304600B69C360CB68074C17
:100BF0001C40C36A064D1D402B19C362097A11437C
:100C00000160B0BD081800000418000077770200EA
:100C10008888FDFF10B507239B04194092008018B7
:100C2000024A84589C436118815010BD301800005E
:100C300010B5029CA400001911431943014A8150C8
:100C400010BDC0465018000092008018014A815023
:100C50007047C0461018000010B501221203831817
:100C60000C789C604B7883508978014A815010BD84
:100C70000C110000B0B51122120283580124A343C5
:100C800083500B888C781C438B882343094C1C4071
:100C90008358094D1D40631983508B79CC791C43CF
:100CA000097A21437E231940801842689A435118DB
:100CB0004160B0BD18670000E798FDFF10B5012244
:100CC000120383180C789C604978815010BD000095
:100CD000034A801802681206FCD481617047C0463E
:100CE0000811000080B500F0C9FD80BD80B500206E
:100CF000502100F00BFB054800F006FC044800F012
:100D000015FB044800F0F8FA80BDC046CD11000084
:100D1000F5100000E50C000010B50124A0071249F1
:100D2000FFF7E0FD11484168114A0A400321090418
:100D30005118416081680F4A0A40210651188160AC
:100D40000D4900220A604C607D2109024161610267
:100D50000A4A136A0B43136213680B43136001685A
:100D60002143016010BDC04608270000001100406B
:100D7000FEFFECFFF8FFE0E080110040281000408B
:100D800010B50D4985220A65012083020B4C2360B2
:100D90004A65C202226082220A60094B4B608A6463
:100DA000CB64084A8A670849084A0A6080030849F0
:100DB0000860086410BDC04604804240D0120A405A
:100DC0008200040081000100C480424081000E00C6
:100DD00090320A40F0B581B01C4C1D492046FFF707
:100DE0003BFF1C492046FFF719FE1B4801681B4AC0
:100DF0000A40026000250095204629462A462B46D7
:100E0000FFF716FF204629462A46FFF703FF7D20FD
:100E10008600204631462A46FFF716FF0127009735
:100E2000204629462A462B46FFF702FF2046294640
:100E30003A46FFF7EFFE204631463A46FFF704FFF9
:100E4000074887600321016001B0F0BD00208640A3
:100E50001027000014270000043886407F00FFFFA1
:100E600000318640B0B51348002404600F20000212
:100E7000114D29688143012042028918296003210C
:100E8000C9432A1F13680B40136069688143696076
:100E900000026968814369600848FFF749FD2868D6
:100EA000102101432020814329602046FFF7A2FD45
:100EB000B0BDC04608030B4004010B401C270000D6
:100EC000084809494160FF210906084A13688B4315
:100ED00003218907591811600021816007210160F1
:100EE0007047C04610E000E07F38010020ED00E0D0
:100EF00010B5084C08492046FFF7AEFE07492046CA
:100F0000FFF710FE06480168012211430160054801
:100F1000026010BD00008640442700004827000002
:100F2000281086400811864010B5084C0849204614
:100F3000FFF792FE07492046FFF7F4FD06480168D7
:100F40000122114301600548026010BD00400840C5
:100F50005C27000060270000285008400851084026
:100F600010B5164C16492046FFF7A8FE1549204635
:100F7000FFF780FE0320C103134802688A43026022
:100F800001692E4A0A4041218900511801614169D5
:100F90001B220A4324218A434261416801221140F5
:100FA00043689343591841609102084B1C680C43F5
:100FB0001C6001681143016010BDC04600801040F4
:100FC0007427000076270000009110402890104000
:100FD00010B5164C16492046FFF770FE15492046FD
:100FE000FFF748FE0320C103134802688A430260EA
:100FF0000169124A0A404121890051180161416981
:101000001B220A4324218A43426141680122114084
:1010100043689343591841609102094B1C680C4383
:101020001C6001681143016010BDC0460000104003
:101030008027000082270000001110400000FFFF01
:101040002810104080B500F01DF8FFF799FEFFF75B
:1010500009FFFFF7BFFEFFF74BFFFFF765FFFFF745
:101060007FFFFFF7B5FFFFF757FEFFF729FFB82017
:10107000024900220A5402490A5480BD5801202026
:101080009C002020F0B581B0104811494160114802
:101090004160114B5960114C6160114D6960114EF6
:1010A0007160114F7960114841601149074A116020
:1010B000084A11601960216029603160396001605F
:1010C0001020FFF72FFC01B0F0BDC04600080A4019
:1010D000030000B100280A4000288640000886402E
:1010E00000480840008810400008104000080040F8
:1010F00001000026F0B583B0002961D003220D461F
:101100001540042935D3009591432E4A8318363B68
:1011100001903338029000252B4E04E020433070BC
:101120002D1DA94222D002984219D71E3078802462
:10113000092F274600D85F5D38433070971E3078FE
:10114000092F274601D85F197F7838433070571E22
:101150003078092F274601D85F19BF78384330709F
:101160003078092ADAD85A19D478D7E70198401983
:10117000009D002D24D00446363C13490A78092CE2
:1011800002D8104B1B5D00E080231A430A70012D2A
:1011900016D00446353C0A78092C02D8094B1B5D51
:1011A00000E080231A430A70022D09D034380B78EE
:1011B000092802D8034A125C00E0802213430B7016
:1011C00003B0F0BDFC2400005603202070B50029B8
:1011D00022D003240B462340104A042901D20024C4
:1011E0000DE0A1430024055D156005196E781660B9
:1011F000AE781660ED781560241DA142F3D1002B66
:101200000AD0015D1160012B06D0001941781160F0
:10121000022B01D08078106070BDC04620111040B4
:1012200003480168002901D0491E01607047C0468B
:1012300070002020B0B50C4D2868411C29600B4C73
:101240002068401C2060652902D2332807D2B0BD37
:1012500000F09AFC0020286020683328F7D300F0C3
:101260001DFB00202060B0BD640420201802202057
:1012700070470000012081041E4A116001041160C2
:1012800002490A6802430A607047C0460438864033
:1012900010B50748006807490A78074B9854074B70
:1012A00001241C700C4B1870501C087010BDC046F7
:1012B00024911040340220200800202068042020BF
:1012C00080B50448006804490870C0B200F038F8DE
:1012D00080BDC046241110406C0020200120C103B5
:1012E000034A1160034B1960400310601860704797
:1012F00080E200E000E100E0002803D0E849086057
:10130000002070470520C0437047C046032802D91B
:101310000520C0437047044A1170E04908607649CF
:10132000002008607047C04605002020002803D038
:1013300070490860002070470520C0437047C046D0
:10134000F0B589B001466B480568002D00D1CFE0AB
:10135000694C226869488154531C2360E24E366808
:10136000B71E022F03D20020206009B0F0BD012E6D
:1013700023D1032B00D2BBE04678032E56D18678CA
:10138000771DBB4200D2B3E00692521E835C1B0263
:101390005F1891B200F034FA87424DD15848006886
:1013A000770800D19FE0032139400291791E03297B
:1013B0000497039044D2002468E00178552935D180
:1013C0000B2B00D294E08378417806910593C918DD
:1013D000C3780493C91803790393C9184379029316
:1013E000C91883790193C918C6798F19017A7B18B6
:1013F000477ADB195533DBB2857AAB4216D1380216
:10140000401807A9C8803002019A80188880029885
:101410000002039A8018488004980002059A8018F8
:10142000088004220698FFF703FA9CE72260411C1B
:10143000FEF75AFE09B0F0BD069A22602F48F6E783
:101440007C213940069140002E490818059000265D
:1014500034462A4881190A79CF783F02BA18059B89
:101460009A538A794F793F02BA189F197A800A7A7B
:10147000CB791B029A18BA808A7A497A09028918AC
:10148000F9800836241D0699A142E3D1029E002E60
:10149000049F039827D06100184A89180A79C978EF
:1014A0000902891802195200164B9952012E1AD0BE
:1014B000611C4A003346114E92191679D2781202F5
:1014C0009219411849000F4E7252022B0BD0A41CE6
:1014D00061000A4A89180A79C9780902891802192B
:1014E0005200084B99523946A8470020024908602B
:1014F00009B0F0BD2C0220206004202058032020D9
:101500005C04202036022020002803D0BB4908605C
:10151000002070470520C0437047C046B0B5022187
:10152000CC4385B2062D01D9E01EB0BD69206D49BE
:1015300000F0DEF8002801D02046B0BDAA480068BF
:10154000012803D0002805D1012000E014206749BC
:10155000096888471F20294600F0CAF80028EBD107
:1015600004462046B0BDC046B0B514494118491ED6
:1015700089B20222D443124A914201D2E01EB0BD88
:1015800005466920574900F0B3F8002801D02046ED
:10159000B0BD95480068012803D0002805D101207E
:1015A00000E01420514909688847A9B2022000F0E0
:1015B0009FF80028EBD104462046B0BD01F0FFFFA4
:1015C00001F00000B0B50221CC4301460E3989B2CA
:1015D000114A914201D2E01EB0BD05466920414941
:1015E00000F086F8002801D02046B0BD7E48006893
:1015F000012803D0002805D1012000E014203B4938
:1016000009688847A9B2032000F072F80028EBD1DE
:1016100004462046B0BDC046F3FF000010B5692067
:10162000304900F065F80221CC43002801D0204663
:1016300010BD6D480068012803D0002805D10120A5
:1016400000E014202949096888470120014600F07C
:101650004FF80028EBD10446204610BD10B5692094
:10166000204900F045F80221CC43002801D0204653
:1016700010BD5D480068012803D0002805D1012075
:1016800000E014201949096888470120072100F06B
:101690002FF80028EBD10446204610BD5804202026
:1016A0002402202010B569200E4900F021F8022103
:1016B000CC43002801D0204610BD4B4800680128CB
:1016C00003D0002805D1012000E014200749096853
:1016D00088470120002100F00BF80028EBD10446D8
:1016E000204610BD88B50000580420202402202088
:1016F000F0B585B00422D2438F2801D9521E70E084
:10170000394B1B687B441B795B009F4401321021DD
:101710003A4B1B68002B64D003AAD17090703648F6
:101720001080080A10710521104698471FE0314BC0
:101730001C68002C55D003ABD97098702E481880C7
:10174000080A18712A48007805221946A0470EE0B9
:10175000264B1C68002C44D003AA1170090A517052
:1017600023490B78C1B25806000E0223A04700227D
:1017700037E0224B1B68002B33D003AC6171E07063
:1017800000220292A270062565700A0A0092227158
:10179000174D2D7825700193FF23AB43364FFD5C29
:1017A000344EF35CF9225A40B35C6B40FD5CF35C51
:1017B000BA5C5A404240D0B2325C6A40009B5A4008
:1017C000D2B2B35C385C58404840C0B2395CE17179
:1017D000B95C305C4840A07108212046019A9047CE
:1017E000029A104605B0F0BD58042020280220209F
:1017F0000500202020022020FFAA00003002202027
:10180000F0B581B0002909D001230A461A400092A0
:10181000012906D1FF2300251C4618E0FF2423469A
:1018200021E09943FF230025124E134F1C46425DD1
:10183000DBB25340F25CE4B2544042195278624049
:10184000BC5CB25CFB5C5340AD1CA942EFD100997B
:10185000002908D0405DD9B241400748405C054AA4
:10186000535C63400446E0B21902081880B201B02C
:10187000F0BDC046062500000626000002490860AB
:10188000002800D0FEE770477000202010B5044605
:10189000C1B2BC48FFF71CFA204610BDF0B587B0B6
:1018A0007C4C20784338322800D94AE078440079CB
:1018B0004000874419464646464646464646464602
:1018C0004646462246461B46464646464646464607
:1018D0004646314637461D46464646464646244617
:1018E0004646462A46463E001E201CE0002021E0D7
:1018F000FFF7D8FE002806D123E0062006E0FFF718
:10190000ADFE00281DD0674819E00320FFF75AFEFE
:10191000002816D0614812E0FFF780FE002810D0A2
:1019200061A00CE00220FFF71FFE002809D05A48F2
:1019300005E00620FFF7F2FD002802D0584800F02D
:1019400009F9FF2020705E480078002800D19EE051
:1019500068205C4E305EFEF70FFD0721CD0629465C
:10196000FEF7EDFB8321CF053946FEF7E8FB56492C
:10197000069008606E20305EFEF7FEFC2946FEF7FA
:10198000DEFB5249FEF7DBFB514C20606A20305EE3
:10199000FEF7F2FC2946FEF7D2FB3946FEF7CFFBF5
:1019A0000590494948607020305EFEF7E5FC294605
:1019B000FEF7C5FB4549FEF7C2FB60606C20305E58
:1019C000FEF7DAFC2946FEF7BAFB3946FEF7B7FB0D
:1019D00004903D4988607220305EFEF7CDFC2946B8
:1019E000FEF7ADFB3949FEF7AAFBA0608020315E0F
:1019F0007A20305A00B20A1A0A2A05DC411A0B2949
:101A000002DA3448006809E0FEF7B6FC2946FEF722
:101A100096FB3149FEF793FB2E4908602F4F386043
:101A20002F48032101607C20305EFEF7A5FC29468B
:101A3000FEF785FB284C2146FEF781FB78607E206F
:101A4000305EFEF799FC2946FEF779FB2146FEF74A
:101A500076FBB8601A480078C00718D00598FEF7E2
:101A600096FC04460D460498FEF791FC06460F4688
:101A70000698FEF78CFC024600A8F0C019A00B46A1
:101A800000F0A8F80E4A1078FE210140117007B04E
:101A9000F0BDC046040020208C2700009D270000D8
:101AA000AF270000C62700000D0A5365742041636C
:101AB0006343616C69204572726F720D0000000013
:101AC0005603202036022020740020200000FA4413
:101AD000900020208C002020000034438000202033
:101AE000140220204143433A09583A252E336620F8
:101AF000593A252E3366205A3A252E33660D0A00B0
:101B000001204105084A13680B40590D074A11701E
:101B1000074A002B05D11378034002D08003054B00
:101B2000186011707047C04680330A401C022020A4
:101B30001D022020B0320A40FFF784FAFFF79AFB1B
:101B4000FEF768FEFFF7D2F8FFF7C8FBFFF7D8FFF4
:101B5000FCE70000F0B581B00446FEF7E9FA86B272
:101B6000084D002E07D0374621782846FFF7B0F8F9
:101B7000641C7F1EF8D10A212846FFF7A9F8701CC3
:101B800001B0F0BD0080104070B50D4D28780028E0
:101B900013D00A4E307800280FD00A4C2046FEF7AA
:101BA000C7FAC2B208A0214600F014F80020307035
:101BB000287064212046FEF7B0FA70BD3402202060
:101BC00068042020080020202573206C656E3A25CB
:101BD000640D0A000FB410B503A9044B044A02981F
:101BE00000F0F0F810BC08BC04B018478D180000D5
:101BF000000020202021020C01D010211046020AF2
:101C000001D010460839020901D01046091F820888
:101C100001D01046891E420801D0881E7047081A5C
:101C2000704700000000000002E008C8121F08C151
:101C3000002AFAD170470000704700000000000041
:101C4000002001E001C1121F002AFBD170470000F3
:101C5000F0B51FB486B00998089A030D002102431D
:101C600014D05148514A18185043051411980128AE
:101C700010981AD0281A401C00264D4F4D49009646
:101C800001910490002812DA444211E011980124D5
:101C900049A3012801D11098C1430698119A846084
:101CA0000360C26041600BB0F0BD4042E4E704460F
:101CB000210500203F4A001C51410391029012E08F
:101CC000E00707D032463B4601990098FEF774FAC8
:101CD0000191009032463B4610461946FEF76CFAD9
:101CE00006460F466410002CEAD10498039B002896
:101CF000029A0999089806DAFEF75EFA019B009AA3
:101D0000FEF75AFA05E0FEF7BFFA019B009AFEF7CC
:101D1000BBFA04460E460022284BFEF70DFD03D801
:101D20000020C043014607E00022254B20463146F3
:101D3000FEF730FCFEF7E0FC102409E0002C0ADB83
:101D40000A220023FEF756FB079B30321A55641E09
:101D500002460A43F2D11122641C079B121B1C1974
:101D6000119B012B03D0012308430ED10AE0084345
:101D700004D0112010900020119077E71098151AC8
:101D80006D1E0BE01098824202DD00236D1C03E003
:101D9000824201DA00236D1E002BEED006981199C5
:101DA0008260C16030C07EE701FCFFFF104D000083
:101DB000000014400000F03F300000000000F0433D
:101DC0000000E03FFFB597B00646002518E2252841
:101DD00077D100242746FD49049400E00443761C93
:101DE00032780120203A90400842F7D130782A28F2
:101DF0000ED00222307801463039092916D80499CC
:101E00000A235943303940181443761C0490F1E7F3
:101E1000189802C804911890002904DA01204003A0
:101E200004434842049002200443761C30782E2854
:101E300014D1042004437078761C2A2809D11898FC
:101E4000761C80C8189009E00A214F43303FC7191B
:101E5000761C3078014630390929F5D930786C285C
:101E600010D006DC4C281AD068280ED06A2817D16A
:101E700004E0742813D07A2812D110E00120400524
:101E800004430CE00121090501E0032109050C438D
:101E90007178814203D1012000052418761C761C3C
:101EA0003078119066280BD013DC58287DD009DCDF
:101EB00000287BD04528F6D04628F4D047281AD1F0
:101EC000A5E118E0632835D0642870D0652812D1C8
:101ED0009DE170286CD008DC6728F1D069287BD0A0
:101EE0006E280DD06F2806D1BAE073282ED0752841
:101EF00071D0782859D01A9A199990476D1C7EE1B3
:101F00006002400F022809D003280DD00428189839
:101F100001680DD00D60001D189070E11898EA1747
:101F200001680D604A60F6E7189801680D80F2E7D5
:101F30000D70F0E718986A4601781172001D18902C
:101F40000020507202A80090012005E0189802C8F5
:101F5000189000200091C04361070DD5002101E0D9
:101F60000199491C0191B94212DA8142F8DB009AC9
:101F7000515C0029F4D10BE0002101E00199491CDA
:101F800001918142FADB019A0099895C0029F5D11F
:101F9000019904981A9B471A21463846199A00F06D
:101FA00097FA0199401945180BE04FE02CE113E036
:101FB0004EE0009800990078491C00911A9A1999EE
:101FC00090470198401E0190401CF2D121463846AE
:101FD0001A9B199A10E137E00A2000210090019124
:101FE0006002410F022907D0189A01CA1892C2173D
:101FF0009446032908D00AE01898C01DC108C900FA
:1020000005C91891944607E000B2C2179446042906
:1020100002D140B2C1178C4600226146944506DACF
:102020000A460021404291418C462D2102E02105C3
:1020300004D52B216A461173012103E0E10701D089
:102040002021F7E7029155E00A200AE0102008E07D
:10205000102000900021042004430191082703E090
:1020600008200021019100906002410F022907D051
:10207000189A01CA189200229446032908D008E051
:102080001898C01DC108C90005C91891944603E0FD
:1020900080B2042900D1C0B200210291210729D5C4
:1020A0001199702906D0009A1021019B4A401A43C9
:1020B00005D00EE040216A461173012108E0614617
:1020C000014306D030216A461173119951730221E0
:1020D0000291009A0821019B4A401A430AD16146A5
:1020E000014301D1610705D530216A4611730121F1
:1020F0007F1E02911199582904D035A10E910DA986
:102100000D910DE037A1F9E76146019B009AFEF7BA
:1021100071F90E9B8C469B5C0D9A521E0D921370AA
:1021200061460143F0D10D9805A9081A20300190AD
:10213000600703D501200004844300E001270198D3
:10214000874201DD381A00E0002001990090411813
:10215000029809180498401A0490E00306D4214616
:102160001A9B199A049800F0B3F94519002706E064
:1021700003A81A9AC05D199990476D1C7F1C02989C
:102180008742F5DBE0030CD521461A9B199A049887
:1021900000F09EF9451904E01A9A302019999047E9
:1021A0006D1C0099481E00900029F5DC08E00D9890
:1021B0000D990078491C0D911A9A199990476D1C38
:1021C0000199481E01900029F1DC63E10928010012
:1021D000303132333435363738396162636465669D
:1021E000000000003031323334353637383941425F
:1021F000434445460000000000F05AF94519761C9A
:102200003078002800D0E2E528461BB0F0BD60071A
:1022100000D406271898C01DC108C90048680A687C
:102220000831C30FDB071891190001D09CA108E009
:10223000210501D59BA104E0E10701D09AA100E0AE
:102240009AA1430011985B08109165280CD006DC18
:10225000452809D046281DD0472841D141E06628AD
:1022600018D067283CD13CE00021112F01DB112060
:1022700000E0781C0191009008A911A8FFF7E8FC84
:10228000139905910021119A15927F1C12980197BC
:10229000009150E00120C00703900120019008A99F
:1022A000009711A8FFF7D4FC139A14990592002205
:1022B000119B009212981593059A0192002901D062
:1022C000104602E0791C40180190381A01D5019897
:1022D00004E04042401E0090781C0190C01B029018
:1022E00043E0012F00DA01270021112F01DD112029
:1022F00000E038460191009008A911A8FFF7A8FC5A
:1023000013990591119A0021129815920091019745
:1023100021070CD40599B94201DB019900E0019134
:10232000012904DD159A491E515C302906D0B842B6
:1023300001DA011D05DA0121029115E00199491E1A
:10234000EDE7002805DC0099411800910199091A70
:1023500003E0019A411C914200DD01910099401A6D
:10236000401C02900120C0070390200706D4029968
:102370000198814202DB0020C043029000206946A0
:10238000C87707AF012103980337C907884224D0D3
:10239000022011902B201290039800280CDA404262
:1023A00003902D20129007E00A210398FEF703F80E
:1023B00030317F1E039039701199481E1190002909
:1023C000F2DC03980028EFD1791E1298087030785B
:1023D000202108404530BF1E387006A8C01BC01D14
:1023E000039010980078002800D00120019941182E
:1023F0000298C0170918039809180498401A401E3B
:102400000490E00306D421461A9B199A049800F020
:102410005FF8451910980078002803D01A9A199986
:1024200090476D1CE00324D521461A9B199A049805
:1024300000F04EF845191CE00098002807DB0099D1
:102440000598884203DD1598405C199901E01999B7
:1024500030201A9A904700986D1C401C00900298FA
:10246000401E0290002804D11A9A2E2019999047F4
:102470006D1C0199481E01900029DDDC05E03878CB
:102480001A9A7F1C199990476D1C0399481E039056
:102490000029F4DC21461A9B199A0498ACE6000046
:1024A0002D0000002B0000002000000000000000B4
:1024B000F8B5044600251E461746880404D405E0F6
:1024C00039462020B0476D1C641EF9D52846F8BD5A
:1024D000FFB50446002581B01E46C80301D530274C
:1024E00000E02027880404D505E038460399B0476A
:1024F0006D1C641EF9D5284605B0F0BD0180800230
:1025000080800880800400C1814001C0804101C0FA
:10251000804100C1814001C0804100C1814000C1B3
:10252000814001C0804101C0804100C1814000C1A3
:10253000814001C0804100C1814001C0804101C093
:10254000804100C1814001C0804100C1814000C183
:10255000814001C0804100C1814001C0804101C073
:10256000804100C1814000C1814001C0804101C063
:10257000804100C1814001C0804100C1814000C153
:10258000814001C0804101C0804100C1814000C143
:10259000814001C0804100C1814001C0804101C033
:1025A000804100C1814000C1814001C0804101C023
:1025B000804100C1814001C0804100C1814000C113
:1025C000814001C0804100C1814001C0804101C003
:1025D000804100C1814001C0804100C1814000C1F3
:1025E000814001C0804101C0804100C1814000C1E3
:1025F000814001C0804100C1814001C0804101C0D3
:10260000804100C1814000C0C101C30302C2C606AF
:1026100007C705C5C404CC0C0DCD0FCFCE0E0ACA1A
:10262000CB0BC90908C8D81819D91BDBDA1A1EDE6A
:10263000DF1FDD1D1CDC14D4D515D71716D6D2121A
:1026400013D311D1D010F03031F133F3F23236F62A
:10265000F737F53534F43CFCFD3DFF3F3EFEFA3ADA
:102660003BFB39F9F83828E8E929EB2B2AEAEE2E6A
:102670002FEF2DEDEC2CE42425E527E7E62622E2DA
:10268000E323E12120E0A06061A163A3A26266A62A
:10269000A767A56564A46CACAD6DAF6F6EAEAA6A9A
:1026A0006BAB69A9A86878B8B979BB7B7ABABE7EEA
:1026B0007FBF7DBDBC7CB47475B577B7B67672B29A
:1026C000B373B17170B0509091519353529296562A
:1026D0005797559594549C5C5D9D5F9F9E5E5A9A5A
:1026E0009B5B99595898884849894B8B8A4A4E8EEA
:1026F0008F4F8D4D4C8C448485458747468682425A
:10270000438341818040000001050000000000007B
:1027100008001F00E8030000200001000300000083
:102720000000000000000000400000000000000069
:10273000000000000200000009000000010000008D
:102740002C00C44108010000220000003F9C000052
:102750000100000000000000000000000807C700A2
:1027600022000000A761000001000000000000003E
:102770000000000008000000180000000030000009
:102780000800000018000000003000000D0A53652A
:102790007420525357204572726F720D000D0A5308
:1027A00065742052617465204572726F720D000D60
:1027B0000A5365742042616E6477696474682045C9
:1027C00072726F720D000D0A536574204D6167437C
:1027D000616C69204572726F720D00000028000064
:1027E0000000202008000000281C0000082800002D
:1027F0000800202068050000401C000000000000C8
:0828000000000000FFFF0000D2
:04000005000000C136
:00000001FF
