:020000040000FA
:10000000480320206D010000710100007301000011
:1000100000000000000000000000000000000000E0
:10002000000000000000000000000000750100005A
:100030000000000000000000770100001908000027
:100040007B0100007B0100007B0100007B010000C0
:100050007B0100007B0100007B0100007B010000B0
:10006000000000007B0100007B0100000000000098
:10007000000000007B0100007B010000410800003F
:10008000230800007B0100001B0800007B0100002A
:100090007B0100007B010000000000000000000068
:1000A0007B0100007B010000000000000000000058
:1000B0007B010000000000007B0100007B010000CC
:1000C00000F002F800F042F812A030C808382418F6
:1000D0002D18AC4201D100F039F80FCCA246AB4646
:1000E0000CA730CF2D1B083F3F197C427F1E544484
:1000F0002D090426F441641EAC4201D300F026F819
:100100000126334200D0FB1A3343984754465D46DC
:10011000DFE70000C40A0000D40A0000000000006D
:100120007047000000000000002300240025002686
:10013000103A01D378C1FBD8520700D330C100D5A3
:100140000B6070471FB51FBD10B510BD00F027F83C
:100150001146FFF7F7FF00F0F3FB00F03FF803B4A0
:10016000FFF7F2FF03BC00F045F800000648004727
:10017000FEE7FEE7FEE7FEE7FEE7FEE70348044989
:10018000024A044B70470000C100000048022020D2
:10019000480320204802202070477047704775466A
:1001A00000F024F8AE46050069465346C008C0007A
:1001B000854618B020B5FFF7E1FF60BCB6460026C3
:1001C0000027C0C5C0C5C0C5C0C5C0C5C0C5C0C565
:1001D000C0C5403D490849008D46704710B50446EA
:1001E000C046C0462046FFF7BAFF10BD0048704722
:1001F0000000202001491820ABBEFEE726000200C7
:100200007047811E091F00BFFCD2704770B50B01FB
:10021000C31854689568254394892C431569566919
:100220002543D48924012C43350125430924640244
:100230001D51137852781A43BF231A408900401881
:10024000024944589C43A218425070BD101100004E
:10025000F0B57A4A82183B4BC31808794E793A4D6B
:10026000784C002E23D0202804D00526F601002843
:1002700003D003E0354E002800D18826576F2F4069
:1002800037435767976F2F4037439767566B264022
:100290005663966B264096630026566596658F26B4
:1002A000F6435F6837405F609F6837409F608E7994
:1002B000096820280BD0002819D1491E5160D76E3B
:1002C0002F4088210F43D7661746703719E0491E23
:1002D0005160D16E29401D4F3943D166116F2940BD
:1002E0003943116701214907194D174609E04908AB
:1002F0005160D76E2F400521C9010F43D7661746BD
:1003000070373C682C400C433C60D16A4D4C214016
:10031000D162116B214011630021D16411658F21DD
:10032000C943D46F0C40D4671C680C401C60064362
:10033000BD2030401168074B0B40C018801C106076
:10034000F0BDC0468418000024493E0001040000AE
:10035000FFFFFFCF4000FFCFB0B54A68364BC25019
:10036000364A80180A78222A58D8930001A4E35804
:100370009F46C046130400001D0400001304000043
:100380001D0400001D0400001D0400001D040000E9
:100390001D0400001D0400001D0400001D040000D9
:1003A0001D0400001D0400001D0400001D040000C9
:1003B0001D040000010400001D04000001040000F1
:1003C0001D0400001D0400001D0400001D040000A9
:1003D0001D0400001D0400001D0400001D04000099
:1003E0001D0400001D0400001D0400001D04000089
:1003F0001D040000010400001D04000001040000B1
:1004000003231B0704689C4301235B07E318036075
:1004100004E003231B0704689C4304600B69C3606A
:10042000CB68074C1C40C36A064D1D402B19C362A4
:10043000097A11430160B0BD0818000004180000DB
:10044000777702008888FDFF10B507239B041940C9
:1004500092008018024A84589C436118815010BD54
:100460003018000010B5029CA40000191143194374
:10047000014A815010BDC0465018000092008018FB
:10048000014A81507047C0461018000010B5012283
:10049000120383180C789C604B7883508978014A4A
:1004A000815010BD0C110000B0B51122120283580A
:1004B0000124A34383500B888C781C438B882343EF
:1004C000094C1C408358094D1D40631983508B799A
:1004D000CC791C43097A21437E2319408018426855
:1004E0009A4351184160B0BD18670000E798FDFFBE
:1004F00010B50122120383180C789C604978815052
:1005000010BD0000034A801802681206FCD4816105
:100510007047C0460811000080B503480021034A17
:10052000FFF774FE80BDC04600A04240780B00007B
:1005300080B5FFF7F1FF80BD10B50C48852101653E
:10054000012293020A4C23604165D102216082217D
:10055000016008494160084981670848084901600D
:10056000900308490860086410BDC04604804240FA
:10057000D0120A408200040081000100C480424081
:1005800081000E0090320A40F0B581B01C4C1D492C
:100590002046FFF77BFF1C492046FFF759FEA7487E
:1005A00001681A4A0A400260002500952046294643
:1005B0002A462B46FFF756FF204629462A46FFF7D4
:1005C00043FF7D208600204631462A46FFF756FF2E
:1005D00001270097204629462A462B46FFF742FF6F
:1005E000204629463A46FFF72FFF204631463A4635
:1005F000FFF744FF064887600321016001B0F0BDAA
:1006000000208640900B0000940B00007F00FFFF4D
:10061000003186400D48002101600320C1430C4891
:10062000021F13680B40136041680122914341602F
:10063000110242688A43426001683022914301609E
:1006400001680F22914301607047C04608030B40C8
:1006500004010B40084809494160FF210906084A86
:1006600013688B43032189075918116000218160A9
:10067000072101607047C04610E000E0FF7C0000E9
:1006800020ED00E010B5084C08492046FFF7FEFEBB
:1006900007492046FFF760FE064801680122114322
:1006A00001600548026010BD000086409C0B000000
:1006B000A00B0000281086400811864010B5084C99
:1006C00008492046FFF7E2FE07492046FFF744FEAF
:1006D000064801680122114301600548026010BD0F
:1006E00000400840B40B0000B80B00002850084040
:1006F0000851084010B5724C1D492046FFF7F8FE1E
:100700001C492046FFF7D0FE0320C1031A480268A7
:100710008A4302600169194A0A4011320261416943
:1007200017220A4328218A434261426801210A4074
:1007300043688B439A184260114A1368114C1C435A
:1007400014608B0213634A04036813430360C26896
:100750002023134350229343C360C26805231343ED
:1007600002229343C36002680A43026010BDC04680
:10077000CC0B0000CE0B0000009110400000FFFFEA
:10078000289010400180000080B500F01BF8FFF7B2
:10079000D3FEFFF73FFFFFF7F7FEFFF773FFFFF70B
:1007A0008DFFFFF7A7FFFFF7C3FEFFF753FFB8204A
:1007B000024900220A5402490A5480BD80012020C7
:1007C000C400202070B50C480C4941600C4A5160AF
:1007D0000C4B59600C4C61600C4D69600C4E7160A3
:1007E0000C4901601160196021602960316010209E
:1007F000FFF707FD70BDC04600080A40030000B1C6
:1008000000280A400028864000088640004808402A
:100810000088104001000026704780B500F06EF897
:1008200080BD704701208104334A116001041160CA
:1008300002490A6802430A607047C046043886408D
:10084000B0B51C480068C0B2102831D11A48C1693F
:100850001A4A1378264CE154591C11700168C907D3
:1008600008D00168C90705D00168C90702D001682E
:10087000C907F3D1124C48212046FFF743FE6521FA
:100880002046FFF73FFE6C2520462946FFF73AFE3B
:1008900020462946FFF736FE6F212046FFF732FE3D
:1008A0000D212046FFF72EFE0A212046FFF72AFEE3
:1008B000B0BDC04620901040089110403E0220205C
:1008C00000801040084809494160094981600121C0
:1008D000C1600268022313430360C803054908602E
:1008E000054908607047C04600B24240249110405C
:1008F0006000202080E200E000E100E0B0B50120CF
:1009000041050B4A12680A40510D0A4D29700A4CE4
:10091000002A0AD12278024007D0800307490860E4
:100920007D20000100F014F829782170B0BDC04688
:1009300080330A403C0220203D022020B0320A4091
:10094000FFF722FFFFF76EFFFFF7BCFFFEE7000097
:1009500080B50146064800F013F84108054A1160C9
:1009600005490860116805480022FFF787FD80BD32
:1009700040420F0040022020083886400020864078
:1009800043088B421AD3002203098B4279D3030A0E
:100990008B425ED3030B8B4242D3030C8B4227D393
:1009A0000902FF2212BA030C8B4202D3121209026F
:1009B00003D0030B8B4233D31AE0D3E0411A8041BA
:1009C000401C704703460B4371D443088B42F5D358
:1009D000002203098B4254D3030A8B4239D3030B01
:1009E0008B421DD3030C8B4202D394466EE0090A5E
:1009F000C30B8B4201D3CB03C01A5241830B8B42F2
:100A000001D38B03C01A5241430B8B4201D34B03DA
:100A1000C01A5241030B8B4201D30B03C01A52413F
:100A2000C30A8B4201D3CB02C01A5241830A8B42C4
:100A300001D38B02C01A5241430A8B4201D34B02AD
:100A4000C01A5241030A8B4201D30B02C01A524111
:100A5000CDD2C3098B4201D3CB01C01A52418309C5
:100A60008B4201D38B01C01A524143098B4201D3FF
:100A70004B01C01A524103098B4201D30B01C01A2A
:100A80005241C3088B4201D3CB00C01A52418308A4
:100A90008B4201D38B00C01A524143088B4201D3D1
:100AA0004B00C01A5241411A524110007047CA0F00
:100AB00000D04942031000D34042534000229C46DC
:100AC00003098B422DD3030A8B4212D38901FC22E6
:100AD00012BA030A8B420CD3890192118B4208D3BC
:100AE000890192118B4204D3890137D0921100E021
:100AF0008909C3098B4201D3CB01C01A5241830932
:100B00008B4201D38B01C01A524143098B4201D35E
:100B10004B01C01A524103098B4201D30B01C01A89
:100B20005241C3088B4201D3CB00C01A5241830803
:100B30008B4201D38B00C01A5241D9D243088B4259
:100B400001D34B00C01A5241411A00D20146524112
:100B5000104663465B1000D34042704763465B100B
:100B600000D3404201B50021004201D0C9430846EC
:100B7000C046C04602BD0000110000000000002079
:100B80000000000000000000000000000000030062
:100B900008001F00E803000020000100080000001A
:100BA00022000000FF7C00000100000000000000A7
:100BB000000000000807C700220000001F4E0000D0
:100BC000010000000000000000000000080000001C
:100BD0001800000000300000E80B0000000020209A
:080BE000480300002801000099
:04000005000000C136
:00000001FF
